:100000000C945E000C9486000C9486000C94860080
:100010000C9486000C9486000C9486000C94860048
:100020000C9486000C9486000C9486000C94860038
:100030000C9486000C9486000C9486000C94860028
:100040000C94BA040C9486000C942A050C940405B4
:100050000C9486000C9486000C9486000C94860008
:100060000C9486000C9486000000000024002700F9
:100070002A0000000000250028002B0004040404CE
:100080000404040402020202020203030303030342
:10009000010204081020408001020408102001021F
:1000A00004081020000000080002010000030407FB
:1000B00000000000000000005C055B0811241FBE6A
:1000C000CFEFD8E0DEBFCDBF11E0A0E0B1E0EAE6BF
:1000D000F8E102C005900D92AC36B107D9F722E0E5
:1000E000ACE6B1E001C01D92AA33B207E1F710E01F
:1000F000CDE5D0E004C02197FE010E94270ACC354F
:10010000D107C9F70E94FC050C94280C0C94000040
:1001100090E0FC01EC55FF4F2491FC01E057FF4FAC
:100120003491FC01E458FF4FE491EE23C9F02223FF
:1001300039F0233001F1A8F4213019F1223029F1EE
:10014000F0E0EE0FFF1FEE58FF4FA591B4918FB76F
:10015000F894EC91611126C030953E233C938FBFFB
:1001600008952730A9F02830C9F0243049F780914C
:1001700080008F7D03C0809180008F778093800006
:10018000DFCF84B58F7784BDDBCF84B58F7DFBCF88
:100190008091B0008F778093B000D2CF8091B00073
:1001A0008F7DF9CF3E2BDACFCF93DF9390E0FC0128
:1001B000E057FF4F249184589F4FFC01849188237E
:1001C000D1F090E0880F991FFC01E859FF4FA591ED
:1001D000B491FC01EE58FF4FC591D49161110EC04E
:1001E0009FB7F8948C91E22FE0958E238C93288111
:1001F000E223E8839FBFDF91CF9108958FB7F894F2
:10020000EC91E22BEC938FBFF6CF3FB7F89480913F
:10021000770190917801A0917901B0917A0126B58A
:10022000A89B05C02F3F19F00196A11DB11D3FBF2E
:10023000BA2FA92F982F8827BC01CD01620F711DFD
:10024000811D911D42E0660F771F881F991F4A95F7
:10025000D1F708958F929F92AF92BF92CF92DF9283
:10026000EF92FF924B015C010E9405016B017C0142
:100270000E9405016C197D098E099F09683E734033
:1002800081059105A8F321E0821A9108A108B1081F
:1002900088EEC80E83E0D81EE11CF11C8114910485
:1002A000A104B10429F7FF90EF90DF90CF90BF90A9
:1002B000AF909F908F900895AF92BF92CF92DF92B0
:1002C000EF92FF920F931F93CF93DF936C017B010B
:1002D0008B01040F151FEB015E01AE18BF08C0179C
:1002E000D10759F06991D601ED91FC910190F0810F
:1002F000E02DC6010995892B79F7C501DF91CF91D2
:100300001F910F91FF90EF90DF90CF90BF90AF9033
:100310000895FC01538D448D252F30E0842F90E00B
:10032000821B930B541710F0CF96089501970895F0
:10033000FC01918D828D981761F0A28DAE0FBF2FB9
:10034000B11D5D968C91928D9F5F9F73928F90E00F
:1003500008958FEF9FEF0895FC01918D828D98177E
:1003600031F0828DE80FF11D858D90E008958FEFBB
:100370009FEF0895FC01918D228D892F90E0805C84
:100380009F4F821B91098F73992708958BE791E006
:100390000E94BA0121E0892B09F420E0822F089500
:1003A00080E090E0892B29F00E94C60181110C9415
:1003B00000000895FC01A48DA80FB92FB11DA35A08
:1003C000BF4F2C91848D90E001968F739927848F75
:1003D000A689B7892C93A089B1898C918370806498
:1003E0008C93938D848D981306C00288F389E02D39
:1003F00080818F7D80830895EF92FF920F931F93EA
:10040000CF93DF93EC0181E0888F9B8D8C8D9813C7
:100410001AC0E889F989808185FF15C09FB7F894D3
:10042000EE89FF896083E889F9898081837080641F
:1004300080839FBF81E090E0DF91CF911F910F916A
:10044000FF90EF900895F62E0B8D10E00F5F1F4F79
:100450000F731127E02E8C8D8E110CC00FB607FC88
:10046000FACFE889F989808185FFF5CFCE010E9416
:10047000DA01F1CFEB8DEC0FFD2FF11DE35AFF4FA9
:10048000F0829FB7F8940B8FEA89FB8980818062A4
:10049000CFCFCF93DF93EC01888D8823B9F0AA8961
:1004A000BB89E889F9898C9185FD03C0808186FD2F
:1004B0000DC00FB607FCF7CF8C9185FFF2CF80817E
:1004C00085FFEDCFCE010E94DA01E9CFDF91CF9118
:1004D0000895089590E080E0089580E480937C0082
:1004E00080917A00806480937A0080917A0086FD02
:1004F000FCCF6091780070917900709371016093E6
:100500007001072E000C880B990B0E94660820E0F2
:1005100030E04AEF5EE30E94A1080E94F109CB019E
:100520000895CF93DF93EC0160E08E810E948800F4
:1005300061E08E810E94880060E08E810E948800C8
:100540008BE891E00197F1F7DF91CF910895CF9279
:10055000DF92EF92FF920F931F93CF93DF936C0183
:100560007C0187E0E80EF11CD0E0C0E0062F10E02F
:10057000B8010C2E02C0759567950A94E2F7617078
:10058000F70181917F010E9488002196C430D10536
:1005900079F7C601DF91CF911F910F91FF90EF90F6
:1005A000DF90CF900C949102CF92DF92EF92FF9266
:1005B0000F931F93CF93DF93EC01F62E642F8C8162
:1005C0000E9488008D818F3F19F060E00E948800B2
:1005D0000F2D10E08F8584FF25C06E0187E0C80EC7
:1005E000D11CF12CE12CB8010E2C02C07595679539
:1005F0000A94E2F76170F60181916F010E94880010
:10060000FFEFEF1AFF0A88E0E816F10461F7CE0168
:10061000DF91CF911F910F91FF90EF90DF90CF90DE
:100620000C949102B80184E0759567958A95E1F77D
:10063000CE010E94A7026F2DCE01DF91CF911F91B5
:100640000F91FF90EF90DF90CF900C94A70240E0C5
:10065000682F8EE192E00C94D402CF93DF93823026
:1006600029F490912D02986090932D02809331028D
:100670001092320280E48093330280E1809334024E
:1006800080E58093350261E0809122020E94D400CF
:10069000809123028F3F19F061E00E94D40061E055
:1006A000809124020E94D400CEE1D2E09E012E511E
:1006B000324080912D0284FD0BC084E090E02196B1
:1006C0002817390744F461E08E810E94D400EECFF0
:1006D00088E090E0F4CF8BE39DE00197F1F760E0D4
:1006E000809122020E94880060E0809124020E9492
:1006F0008800809123028F3F19F060E00E948800FB
:1007000080912D0284FD39C063E08EE192E00E9469
:10071000A702CBE4D6E4CE010197F1F763E08EE1C6
:1007200092E00E94A7022197F1F763E08EE192E048
:100730000E94A70283E592E00197F1F762E08EE163
:1007400092E00E94A70280912D0280620E942703FE
:1007500084E080932E028CE00E94270381E00E94B7
:1007600027038BE39FE10197F1F782E080932F024B
:1007700086E0DF91CF910C94270380620E942703CB
:100780008BE496E40197F1F780912D0280620E943C
:10079000270383E592E00197F1F780912D028062B3
:1007A0000E942703D0CF41E00E94D40281E090E074
:1007B0000895FB0101900020E9F73197AF01461B36
:1007C000570BDC01ED91FC910280F381E02D09943F
:1007D0004F925F926F927F928F929F92AF92BF9251
:1007E000CF92DF92EF92FF920F931F93CF93DF93FD
:1007F000CDB7DEB7A1970FB6F894DEBF0FBECDBF61
:100800008C016B01770FEE08FF08F7FE49C0DC0191
:10081000ED91FC910190F081E02D6DE209955C0174
:1008200022273327A9012C193D094E095F0919A276
:10083000FE01B1967F019AE0492E512C612C712C5A
:10084000CA01B901A30192010E94C009605DD701EC
:100850006E937D01211531054105510589F790E021
:1008600080E0109721F0BD01C8010E94D9038A0DD4
:100870009B1DA1960FB6F894DEBF0FBECDBFDF91D2
:10088000CF911F910F91FF90EF90DF90CF90BF908D
:10089000AF909F908F907F906F905F904F90089552
:1008A000A701960119A2FE01B1967F018AE0882E68
:1008B000912CA12CB12CCA01B901A50194010E946F
:1008C000C009605DD7016E937D0121153105410599
:1008D000510589F790E080E0109759F2BD01C801F9
:1008E0000E94D903C6CFCF93DF93EC018091180209
:1008F00090911902009759F020911A0230911B0231
:100900002C173D0720F081E0DF91CF910895BE01C3
:100910006F5F7F4F0E94520B009789F090931902EE
:1009200080931802D0931B02C0931A0220911C02DC
:1009300030911D02232B39F7FC011082E4CF80E0B7
:10094000E3CF20911C0230911D02232B39F421E0CA
:10095000FC018081882361F020E00AC0BC01809105
:100960001802909119020E94180C21E0892BA1F71E
:10097000822F08951F920F920FB60F9211242F937A
:100980003F938F939F93AF93BF9380917301909107
:100990007401A0917501B09176013091720123E04C
:1009A000230F2D3758F50196A11DB11D209372011B
:1009B0008093730190937401A0937501B0937601B5
:1009C0008091770190917801A0917901B0917A019D
:1009D0000196A11DB11D8093770190937801A0939A
:1009E0007901B0937A01BF91AF919F918F913F911F
:1009F0002F910F900FBE0F901F90189526E8230F90
:100A00000296A11DB11DD2CF1F920F920FB60F9269
:100A100011242F933F934F935F936F937F938F9303
:100A20009F93AF93BF93EF93FF938BE791E00E9467
:100A3000DA01FF91EF91BF91AF919F918F917F91DB
:100A40006F915F914F913F912F910F900FBE0F903B
:100A50001F9018951F920F920FB60F9211242F938B
:100A60008F939F93EF93FF93E0918B01F0918C0113
:100A70008081E0919101F091920182FD1BC09081F3
:100A8000809194018F5F8F7320919501821741F0BF
:100A9000E0919401F0E0E558FE4F958F809394012A
:100AA000FF91EF919F918F912F910F900FBE0F901B
:100AB0001F9018958081F4CF10927E0110927D01D5
:100AC00088EE93E0A0E0B0E080937F0190938001F6
:100AD000A0938101B09382018BE091E090937C011F
:100AE00080937B0185EC90E090938801809387014F
:100AF00084EC90E090938A018093890180EC90E0EF
:100B000090938C0180938B0181EC90E090938E0107
:100B100080938D0182EC90E09093900180938F01FF
:100B200086EC90E090939201809391011092940151
:100B30001092950110929601109297011092210245
:100B4000109220028DE191E090931F0280931E028B
:100B500082E0809322028FEF8093230283E08093D0
:100B6000240284E08093250285E08093260286E0BB
:100B70008093270287E08093280210922902109226
:100B80002A0210922B0210922C0210922D0281E068
:100B90000E942D03109219021092180210921B024B
:100BA00010921A0210921D0210921C0290E080E036
:100BB0000E9473042091180230911902811113C010
:100BC0002115310519F0C9010E94C90A10921902B4
:100BD0001092180210921D0210921C0210921B0219
:100BE00010921A02089510921D0210921C0267E2E0
:100BF00071E0C9010C94210CCF93DF9300D0CDB7E5
:100C0000DEB7789484B5826084BD84B5816084BD8C
:100C100085B5826085BD85B5816085BD80916E009A
:100C2000816080936E0010928100809181008260CB
:100C30008093810080918100816080938100809108
:100C400080008160809380008091B10084608093F7
:100C5000B1008091B00081608093B00080917A00F3
:100C6000846080937A0080917A00826080937A0019
:100C700080917A00816080937A0080917A00806808
:100C800080937A001092C10061E08DE00E94D40050
:100C900061E08CE00E94D40060E08EE00E94D4000D
:100CA00082E00E942D03E0918B01F0918C0182E0A3
:100CB0008083E0918701F09188011082E0918901A1
:100CC000F0918A018FEC808310929301E0918F0163
:100CD000F091900186E08083E0918D01F0918E018A
:100CE000808180618083E0918D01F0918E0180810F
:100CF00088608083E0918D01F0918E018081806811
:100D00008083E0918D01F0918E0180818F7D8083C1
:100D10008DE2482E512C612C712C90E0292E90E010
:100D2000392E8BE791E00E94BA01892B59F163E0DB
:100D300070E080E090E00E942A018BE791E00E9441
:100D4000980189831A8200911C0210911D020F5F85
:100D50001F4FC8010E947304882319F320911802C1
:100D60003091190280911C0290911D02BE016F5FAB
:100D70007F4F820F931F0E94210C10931D0200933E
:100D80001C02CFCF0E946D0290937101809370017D
:100D9000BC018BE791E00E94E80340911C02509156
:100DA0001D024115510509F486C060911802709129
:100DB00019028BE791E00E945C0165E271E08BE72C
:100DC00091E00E94D90388E291E00E94A104882367
:100DD00041F061E08DE00E94880010926F01109256
:100DE0006E0181E391E00E94A104882341F060E05C
:100DF0008DE00E94880010926F0110926E010E9497
:100E00006D0290937101809370018BE391E00E94D9
:100E1000A104882319F088E58093000182E491E021
:100E20000E94A104882359F0E9E5E093000160E005
:100E30008CE00E94880010926F0110926E018AE48B
:100E400091E00E94A104882341F061E08CE00E94BF
:100E5000880061E08DE00E94880081E591E00E94B9
:100E6000A104882361F060E08CE00E94880060E0CB
:100E70008DE00E94880010926F0110926E0190E048
:100E800080E00E94730420911802309119028111B0
:100E9000BFC02115310519F0C9010E94C90A10927D
:100EA00019021092180210921D0210921C02109248
:100EB0001B0210921A020E946D029093710180939E
:100EC0007001BC018BE791E00E94E8038090700103
:100ED00090907101F9E18F16910461F410926D0107
:100EE00010926C0110926F0110926E0160E08CE024
:100EF0000E948800809100018835E1F5C4014A977D
:100F00008D97C0F5092C000CAA08BB08C501B401D7
:100F10000E94660820E030E040EC5FE30E94A108F8
:100F20000E94F1096B018B0170936D0160936C015C
:100F3000A50194012951310941095109A4E6B0E004
:100F40000E947E09A30192010E945F0930936F0104
:100F500020936E0161E08CE00E94D400C114D104A2
:100F600009F060C060E08CE00E94880061E08CE0E5
:100F70000E94880069E571E08EE192E00E94D90349
:100F800060917001709171018EE192E00E94E8031E
:100F900060E671E08EE192E00E94D903E0913102B7
:100FA000E23008F086C0E150F0E0E25EFD4F848957
:100FB00080680E94270363E671E08EE192E00E9460
:100FC000D90360916E0170916F018EE192E00E94F1
:100FD000E8036AE671E08EE192E00E94D90368ECD2
:100FE00070E080E090E00E942A0181E00E942703E7
:100FF0008BE39FE10197F1F72114310409F491CEBD
:101000000E94C601882309F48CCE0E94000089CE7C
:1010100010921D0210921C0267E271E0C9010E9449
:10102000210C49CF0F3F110511F461E09CCFE0EB9B
:10103000F0E08491833019F140F48130B1F08230D6
:10104000C9F0003811058CF78DCF873011F1883049
:1010500041F18430B1F780918000806280938000FC
:10106000D0928B00C0928A0081CF84B5806884BD05
:10107000C7BC7CCF84B5806284BDC8BC77CF80916B
:101080008000806880938000D0928900C0928800A0
:101090006DCF8091B00080688093B000C092B300A3
:1010A00065CF8091B00080628093B000C092B400A0
:1010B0005DCFE1E079CF80911802909119020097FD
:1010C00011F00C94C90A0895E89409C097FB3EF406
:1010D00090958095709561957F4F8F4F9F4F992385
:1010E000A9F0F92F96E9BB279395F6958795779503
:1010F0006795B795F111F8CFFAF4BB0F11F460FFC3
:101100001BC06F5F7F4F8F4F9F4F16C0882311F01A
:1011100096E911C0772321F09EE8872F762F05C02E
:10112000662371F096E8862F70E060E02AF09A95C9
:10113000660F771F881FDAF7880F9695879597F9BE
:1011400008950E94B4080C9425090E94170938F0EC
:101150000E941E0920F0952311F00C940E090C94A6
:10116000140911240C9459090E94360970F3959FB3
:10117000C1F3950F50E0551F629FF001729FBB278E
:10118000F00DB11D639FAA27F00DB11DAA1F649F2A
:101190006627B00DA11D661F829F2227B00DA11DDD
:1011A000621F739FB00DA11D621F839FA00D611D63
:1011B000221F749F3327A00D611D231F849F600D84
:1011C000211D822F762F6A2F11249F5750409AF0AD
:1011D000F1F088234AF0EE0FFF1FBB1F661F771F39
:1011E000881F91505040A9F79E3F510580F00C9404
:1011F0000E090C9459095F3FE4F3983ED4F38695A9
:1012000077956795B795F795E7959F5FC1F7FE2BA3
:10121000880F911D9695879597F9089597F99F677F
:1012200080E870E060E008959FEF80EC089500246E
:101230000A941616170618060906089500240A943B
:1012400012161306140605060895092E0394000CC1
:1012500011F4882352F0BB0F40F4BF2B11F460FF50
:1012600004C06F5F7F4F8F4F9F4F089557FD905879
:10127000440F551F59F05F3F71F04795880F97FB5A
:10128000991F61F09F3F79F0879508951216130614
:101290001406551FF2CF4695F1DF08C01616170643
:1012A0001806991FF1CF8695710561050894089578
:1012B000E894BB2766277727CB0197F90895052E79
:1012C00097FB1EF400940E94760957FD07D00E94F8
:1012D000C00907FC03D04EF40C9476095095409554
:1012E000309521953F4F4F4F5F4F089590958095D2
:1012F000709561957F4F8F4F9F4F08950E94E2092F
:10130000A59F900DB49F900DA49F800D911D112459
:1013100008952F923F924F925F926F927F928F9299
:101320009F92AF92BF92CF92DF92EF92FF920F9374
:101330001F93CF93DF93CDB7DEB7CA1BDB0B0FB67E
:10134000F894DEBF0FBECDBF09942A88398848883B
:101350005F846E847D848C849B84AA84B984C884D1
:10136000DF80EE80FD800C811B81AA81B981CE0FC8
:10137000D11D0FB6F894DEBF0FBECDBFED010895AD
:10138000A1E21A2EAA1BBB1BFD010DC0AA1FBB1F89
:10139000EE1FFF1FA217B307E407F50720F0A21BFB
:1013A000B30BE40BF50B661F771F881F991F1A9468
:1013B00069F760957095809590959B01AC01BD0192
:1013C000CF010895A29FB001B39FC001A39F700DEC
:1013D000811D1124911DB29F700D811D1124911D3D
:1013E00008950E94F8096894B1110C945909089560
:1013F0000E943E0988F09F5798F0B92F9927B7515E
:10140000B0F0E1F0660F771F881F991F1AF0BA95A8
:10141000C9F714C0B13091F00E945809B1E00895A5
:101420000C945809672F782F8827B85F39F0B93F97
:10143000CCF3869577956795B395D9F73EF490955B
:101440008095709561957F4F8F4F9F4F0895EE0F58
:10145000FF1F0590F491E02D09940F931F93CF93F4
:10146000DF938230910510F482E090E0E091380241
:10147000F091390230E020E0B0E0A0E0309799F43C
:101480002115310509F44AC0281B390B24303105D8
:10149000D8F58A819B816115710589F1FB019383E0
:1014A0008283FE0111C0408151810281138148175E
:1014B0005907E0F04817590799F4109761F0129610
:1014C0000C93129713961C933296CF01DF91CF9114
:1014D0001F910F9108950093380210933902F4CFB1
:1014E0002115310551F04217530738F0A901DB01EE
:1014F0009A01BD01DF01F801C1CFEF01F9CF90934F
:10150000390280933802CDCFFE01E20FF31F8193A1
:1015100091932250310939832883D7CF2091360205
:1015200030913702232B41F42091030130910401C3
:10153000309337022093360220910101309102014D
:101540002115310541F42DB73EB740910501509169
:101550000601241B350BE0913602F0913702E217A9
:10156000F307A0F42E1B3F0B2817390778F0AC01C6
:101570004E5F5F4F2417350748F04E0F5F1F5093A3
:10158000370240933602819391939FCFF0E0E0E0E1
:101590009CCFCF93DF930097E9F0FC013297138241
:1015A0001282A0913802B0913902ED0130E020E0C2
:1015B0001097A1F420813181820F931F2091360270
:1015C000309137022817390709F061C0F0933702CC
:1015D000E0933602DF91CF910895EA01CE17DF073D
:1015E000E8F54A815B819E0141155105B1F7E9019A
:1015F000FB83EA8349915991C40FD51FEC17FD076E
:1016000061F4808191810296840F951FE90199838D
:101610008883828193819B838A83F0E0E0E0129645
:101620008D919C9113970097B9F52D913C9111974D
:10163000CD010296820F931F20913602309137021E
:101640002817390739F6309751F510923902109260
:101650003802B0933702A0933602BCCFD383C28343
:1016600040815181840F951FC817D90761F44E5FDF
:101670005F4F88819981480F591F518340838A8128
:101680009B81938382832115310509F0B0CFF093BC
:101690003902E09338029ECFFD01DC01C0CF1382F6
:1016A0001282D7CFB0E0A0E0E8E5FBE00C948B0914
:1016B0008C01009751F4CB010E942D0A8C01C801C6
:1016C000CDB7DEB7E0E10C94A709FC01E60FF71FE8
:1016D0009C0122503109E217F30708F49DC0D9019B
:1016E000CD91DC911197C617D70798F0C530D10579
:1016F00030F3CE0104978617970708F3C61BD70B64
:101700002297C193D1936D937C93CF010E94C90A14
:10171000D6CF5B01AC1ABD0A4C018C0E9D1EA09168
:101720003802B0913902512C412CF12CE12C109748
:1017300031F580913602909137028815990509F0AC
:101740005CC04616570608F058C080910101909180
:101750000201009741F48DB79EB740910501509169
:101760000601841B950BE817F90708F055C0F093A4
:101770003702E0933602F90171836083A0CF8D9127
:101780009C91119712966C90129713967C901397D8
:10179000A815B90559F56C0142E0C40ED11CCA1454
:1017A000DB0420F1AC014A195B09DA0112961597A6
:1017B00080F06282738251834083D9016D937C9360
:1017C000E114F10471F0D7011396FC93EE93129794
:1017D00076CF22968C0F9D1FF90191838083F301B0
:1017E000EFCFF0933902E093380269CF48165906DB
:1017F00008F42C017D01D3019ACFCB010E942D0A60
:101800007C01009749F0AE01B8010E940F0CC8019D
:101810000E94C90A870153CF10E000E050CFFB01BE
:10182000DC0102C001900D9241505040D8F708955C
:10183000FB01DC018D91019080190110D9F3990B06
:101840000895FB01DC0101900D920020E1F708955D
:1018500010E0CDE5D0E004C0FE010E94270A2196E9
:0A186000CE35D107C9F7F894FFCF89
:10186A005900003A02800000000000FC015C018976
:10187A00014902BA019801AC0100000000D3035CDF
:10188A00016A0269020D0A006C69676874206F6E4A
:10189A00006C69676874206F66660066616E206F07
:1018AA006E0066616E206F666600616C6C206F6EFA
:1018BA0000616C6C206F66660054454D503A2000FA
:0C18CA0043200046414E533A2000250008
:00000001FF
